:020000040000FA
:060000000A128A11FC2F18
:100F8400831203138C1EC72FC82FC22F1A08080000
:100F94008316031307138717813099001815181245
:100FA40083120313981783160313981683120313DB
:100FB4001816831603131813831203131813080047
:100FC4008316031386010A128A11CA270A128A1188
:100FD400831203138C1EEF2FF02FEA2F0A128A11AB
:100FE400C2270A128A11831203138600EA2F0A12F7
:0C0FF4008A11002883010A128A11E22FE2
:00000001FF
