:020000040000FA
:100000000A128A11FC2F00308A000408840A820731
:100010000034203420344F347534743470347534E3
:1000200074343A34323420342034003420342034D0
:100030004F34753474347034753474343A34333422
:10004000203420340034203420344F347534743458
:100050007034753474343A343134203400344934D3
:0C0060006E347034753474343A3400345B
:100EB400F000831203130C1E602F612F5B2F700848
:100EC4009900080083120313981C692F6A2F6C2F52
:100ED400181218168C1E6F2F702F6C2F1A0808000A
:100EE40083160313071387178130990018151812F6
:100EF400831203139817831603139816831203138C
:100F040018168316031318138312031318130800F7
:100F1400F2009C2F720884000A128A1103200A121C
:100F24008A110A128A115A270A128A110130F10011
:100F34007108F207720884000A128A1103200A1247
:100F44008A11003A031DA72FA82F8C2F080083169F
:100F5400031386018312031386010A128A1172276E
:100F64000A128A1127300A128A118A270A128A1150
:100F74000A128A1164270A128A11F300F401730811
:100F8400F5007408F600313075067604031DCB2F86
:100F9400CC2FD62F02308312031386001B300A1283
:100FA4008A118A270A128A11323075067604031DC3
:100FB400DC2FDD2FE72F043083120313860001306A
:100FC4000A128A118A270A128A11333075067604A6
:100FD400031DED2FEE2FB42F083083120313860068
:100FE4000E300A128A118A270A128A11B42F0A12A1
:0C0FF4008A11002883010A128A11A92F1B
:00000001FF
